:020000040800F2
:1000000000200020AD480008C9470008D347000879
:1000100000000000000000000000000000000000E0
:10002000000000000000000000000000D9470008A8
:100030000000000000000000E3470008ED47000852
:10004000FD480008FD480008FD480008FD4800087C
:10005000FD480008FD480008FD480008FD4800086C
:1000600000000000FD480008FD480008FD480008A9
:1000700001480008FD480008000000001948000879
:100080000000000000000000000000000000000070
:10009000FD48000800000000FD480008FD48000879
:1000A00000000000FD480008000000000000000003
:1000B000FD480008FD4800080000000000000000A6
:1000C00010B5064C2378002B07D1054B002B02D02E
:1000D000044800E000BF0123237010BD1800002079
:1000E0000000000048490008044B10B5002B03D065
:1000F0000349044800E000BF10BDC04600000000F6
:100100001C00002048490008002243088B4274D399
:1001100003098B425FD3030A8B4244D3030B8B4208
:1001200028D3030C8B420DD3FF22090212BA030C11
:100130008B4202D31212090265D0030B8B4219D3F2
:1001400000E0090AC30B8B4201D3CB03C01A524112
:10015000830B8B4201D38B03C01A5241430B8B425A
:1001600001D34B03C01A5241030B8B4201D30B0343
:10017000C01A5241C30A8B4201D3CB02C01A52416A
:10018000830A8B4201D38B02C01A5241430A8B422D
:1001900001D34B02C01A5241030A8B4201D30B0216
:1001A000C01A5241CDD2C3098B4201D3CB01C01A30
:1001B000524183098B4201D38B01C01A524143093A
:1001C0008B4201D34B01C01A524103098B4201D328
:1001D0000B01C01A5241C3088B4201D3CB00C01A95
:1001E000524183088B4201D38B00C01A524143080D
:1001F0008B4201D34B00C01A5241411A00D2014632
:10020000524110467047FFE701B5002000F006F8A4
:1002100002BDC0460029F7D076E770477047C04658
:1002200080B500AF074B1A68064B40210A431A609D
:10023000002000F009F804F001FA00231800BD4680
:1002400080BDC0460020024080B582B000AF78601B
:100250000B4B1A68FA2399001000FFF755FF0300B3
:10026000180000F026FE796801235B420022180086
:1002700000F0FAFD00231800BD4602B080BDC04664
:100280001400002080B500AF034B1B685A1C024BC2
:100290001A60C046BD4680BD6800002080B500AF32
:1002A000024B1B681800BD4680BDC0466800002098
:1002B00080B584B000AF78600023FB60FFF7EEFFED
:1002C0000300FB60C046FFF7E9FF0200FB68D21A9B
:1002D0007B689A42F7D3C046BD4604B080BD00009B
:1002E00080B582B000AF78607B68002B01D101231C
:1002F00053E17B689B6D002B0AD17B680022DA6595
:100300007B685422002199547B68180004F0CEF9D0
:100310007B689B6D1022134005D17B681B689B682E
:10032000042213400BD07B689B6D10221A437B681C
:100330009A657B6854220021995401232DE17B6842
:100340009B6D984A134002221A437B689A657B682A
:100350001B689B6803221340012B08D17B681B6834
:100360001B6801221340012B01D1012300E000236F
:10037000002B49D17B685A68C0231B069A420BD0D8
:100380007B685A688023DB059A4205D07B685A68EF
:1003900080231B069A4211D17B681B681A697B680F
:1003A0001B68920092081A617B681B6819697B6858
:1003B0005A687B681B680A431A6114E07B681B68F3
:1003C0001A697B681B68920092081A61764B1A685A
:1003D000754B76490A401A60734B19687B685A68F6
:1003E000714B0A431A607B681B68DA687B681B687C
:1003F00018218A43DA607B681B68D9687B689A6831
:100400007B681B680A43DA60674B1A68664B684969
:100410000A401A60644B19687B689B6B5A06624BF2
:100420000A431A607B681B689A6880235B05134047
:1004300008D17B681B689A687B681B688021490526
:100440000A439A607B681B68DA687B681B685949B5
:100450000A40DA607B681B68D9687B68DA687B6869
:100460001B69022B01D1042300E000231A437B689F
:100470001B6A5B031A437B681B6B5B001A437B6838
:100480005B6B1A437B689B699B031A437B68DB6940
:10049000DB031A437B681B680A43DA607B689A6A4D
:1004A000C223FF339A420BD07B681B68D9687B68F4
:1004B0009A6A7B68DB6A1A437B681B680A43DA60C6
:1004C0007B685B6A012B19D17B681B6A002B09D101
:1004D0007B681B68DA687B681B68802149020A43D5
:1004E000DA600BE07B689B6D20221A437B689A657B
:1004F0007B68DB6D01221A437B68DA657B681B6CC5
:10050000012B1FD17B681B681A697B681B682A490D
:100510000A401A617B681B6819697B685A6C7B68A2
:100520009B6C1A437B68DB6C1A437B681B680A432D
:100530001A617B681B681A697B681B6801210A4382
:100540001A610DE07B681B681B690122134007D00C
:100550007B681B681A697B681B6801218A431A61E2
:100560007B681B685A697B681B6807218A435A614C
:100570007B681B6859697B68DA6B7B681B680A4378
:100580005A617B680022DA657B689B6D0322934386
:1005900001221A437B689A6500231800BD4602B009
:1005A00080BDC046FDFEFFFF08270140FFFFC3FFDF
:1005B000FFFFFFFD1902FEFF03FCFFFF90B585B0B2
:1005C00000AF78600F23FB1800221A707B681B684D
:1005D0009B680422134038D17B6854229B5C012B1A
:1005E00001D1022338E07B685422012199547B68B1
:1005F000DB69012B07D00F23FC187B68180000F083
:1006000069FA030023700F23FB181B78002B20D1FD
:100610007B689B6D124A1340802252001A437B680C
:100620009A657B680022DA657B6854220021995420
:100630007B681B681C221A607B681B689A687B6851
:100640001B6804210A439A6003E00F23FB1802226F
:100650001A700F23FB181B781800BD4605B090BD1B
:10066000FEF0FFFFB0B584B000AF78600F23FB1839
:1006700000221A707B6854229B5C012B01D102235B
:100680002AE07B685422012199540F257C197B684C
:10069000180000F0DEFA030023707B191B78002B92
:1006A00013D10F257C197B68180000F073FA030042
:1006B00023707B191B78002B07D17B689B6D084A40
:1006C000134001221A437B689A657B6854220021FB
:1006D00099540F23FB181B781800BD4604B0B0BD19
:1006E000FEFEFFFF80B584B000AF78603960002364
:1006F000BB600023FB607B685B69082B02D1082389
:10070000FB6013E07B681B68DB68012213400BD0A1
:100710007B689B6D20221A437B689A657B68542214
:100720000021995401236BE00C23FB60FFF7B6FD19
:100730000300BB6019E03B68013316D03B68002B17
:1007400007D0FFF7ABFD0200BB68D31A3A689A42A4
:100750000BD27B689B6D04221A437B689A657B6889
:1007600054220021995403234AE07B681B681B68CC
:10077000FA681340DFD07B689B6D802292001A4399
:100780007B689A657B681B68DA68C0231B0113408D
:100790002DD17B681B6A002B29D17B681B681B68E5
:1007A00008221340082B22D17B681B689B68042217
:1007B000134010D17B681B685A687B681B680C214A
:1007C0008A435A607B689B6D0F4A134001221A438B
:1007D0007B689A650BE07B689B6D20221A437B68DF
:1007E0009A657B68DB6D01221A437B68DA657B685A
:1007F0009B69002B03D17B681B680C221A600023C5
:100800001800BD4604B080BDFEFEFFFF80B582B07B
:1008100000AF78607B681B681B6C1800BD4602B097
:1008200080BD000080B582B000AF78607B681B6837
:100830001B6804221340042B06D17B681B685B688D
:1008400004221340042B0DD07B681B681B68082210
:100850001340082B53D17B681B685B680822134048
:10086000082B4CD17B689B6D1022134006D17B680E
:100870009B6D802292001A437B689A657B681B6897
:10088000DA68C0231B0113402DD17B681B6A002B43
:1008900029D17B681B681B6808221340082B22D1D2
:1008A0007B681B689B680422134010D17B681B681F
:1008B0005A687B681B680C218A435A607B689B6D71
:1008C000344A134001221A437B689A650BE07B6827
:1008D0009B6D20221A437B689A657B68DB6D012241
:1008E0001A437B68DA657B68180000F055F87B686E
:1008F0009B69012B03D07B681B680C221A607B6804
:100900001B681B6880221340802B15D17B681B68F5
:100910005B6880221340802B0ED17B689B6D802208
:1009200052021A437B689A657B68180000F03CF815
:100930007B681B6880221A607B681B681B6810221A
:100940001340102B22D17B681B685B681022134078
:10095000102B1BD17B685B6B002B05D07B681B6861
:10096000DB68012213400DD07B68DB6D02221A4345
:100970007B68DA657B681B6810221A607B68180048
:1009800000F01AF87B681B6810221A60C046BD464A
:1009900002B080BDFEFEFFFF80B582B000AF786080
:1009A000C046BD4602B080BD80B582B000AF786061
:1009B000C046BD4602B080BD80B582B000AF786051
:1009C000C046BD4602B080BD80B582B000AF786041
:1009D00039607B6854229B5C012B01D102236CE0BF
:1009E0007B685422012199547B681B689B68042210
:1009F00013400BD07B689B6D20221A437B689A655D
:100A00007B68542200219954012356E03B685B68BF
:100A10002C4A934228D07B681B68996A3B681B6804
:100A20005B035A0B7B681B680A439A623B681A682F
:100A30008023DB02134009D0234B1A68224B80210C
:100A400009040A431A600A2000F048F93B681A6852
:100A500080239B0213402BD01B4B1A681A4B80211A
:100A6000C9030A431A6023E07B681B689A6A3B68E3
:100A70001B685B035B0BD9437B681B680A409A6267
:100A80003B681A688023DB02134005D00E4B1A68BE
:100A90000D4B0E490A401A603B681A6880239B027E
:100AA000134005D0084B1A68074B09490A401A60E1
:100AB0007B6854220021995400231800BD4602B0DF
:100AC00080BDC0460110000008270140FFFF7FFFE6
:100AD000FFFFBFFF80B584B000AF78600023FB60EC
:100AE0007B681B689B6803221340012B08D17B683D
:100AF0001B681B6801221340012B01D1012300E078
:100B00000023002B3FD17B681B689B68204A134061
:100B10000DD07B689B6D10221A437B689A657B68B9
:100B2000DB6D01221A437B68DA6501232CE07B68C8
:100B30001B689A687B681B6801210A439A60012040
:100B400000F0CCF8FFF7AAFB0300FB6014E0FFF70E
:100B5000A5FB0200FB68D31A0A2B0DD97B689B6D9D
:100B600010221A437B689A657B68DB6D01221A4369
:100B70007B68DA65012307E07B681B681B6801223C
:100B80001340012BE3D100231800BD4604B080BD03
:100B90001700008080B584B000AF78600023FB6050
:100BA0007B681B689B6803221340012B08D17B687C
:100BB0001B681B6801221340012B01D1012300E0B7
:100BC0000023002B40D07B681B689B6805221340E4
:100BD000012B10D17B681B689A687B681B68022117
:100BE0000A439A607B681B6803221A60FFF756FB72
:100BF0000300FB6022E07B689B6D10221A437B6838
:100C00009A657B68DB6D01221A437B68DA650123F4
:100C10001BE0FFF743FB0200FB68D31A0A2B0DD938
:100C20007B689B6D10221A437B689A657B68DB6D3D
:100C300001221A437B68DA65012306E07B681B68A2
:100C40009B6801221340E4D100231800BD4604B084
:100C500080BD80B584B000AF78600023FB607B6806
:100C60001B689B680422134033D07B681B689B6819
:100C7000042213400DD07B681B689B68022213403E
:100C800007D17B681B689A687B681B6810210A4340
:100C90009A60FFF703FB0300FB6014E0FFF7FEFA26
:100CA0000200FB68D31A0A2B0DD97B689B6D1022BA
:100CB0001A437B689A657B68DB6D01221A437B6867
:100CC000DA65012306E07B681B689B6804221340F9
:100CD000E4D100231800BD4604B080BD80B584B0C7
:100CE00000AF78600A4B1B680A491800FFF70CFA3E
:100CF00003001A007B685343FB6002E0FB68013B82
:100D0000FB60FB68002BF9D1C046BD4604B080BD36
:100D10001400002040420F0080B582B000AF0200F6
:100D2000FB1D1A70FB1D1B781A001F231A40044B71
:100D3000012191400A001A60C046BD4602B080BD44
:100D400000E100E090B583B000AF02003960FB1D08
:100D50001A70FB1D1B787F2B32D92F4AFB1D1B7885
:100D600019000F230B40083B9B0806339B00D31848
:100D700004331B68FA1D1278110003220A40D200C6
:100D8000FF2191400A00D2431A4011003B689B01A9
:100D9000FF221A40FB1D1B78180003230340DB00D1
:100DA0009A401D48FB1D1B781C000F232340083B65
:100DB0009B080A4306339B00C31804331A6027E0DC
:100DC000164AFB1D1B785BB29B08C0339B009B58E7
:100DD000FA1D1278110003220A40D200FF2191402F
:100DE0000A00D2431A4011003B689B01FF221A40BF
:100DF000FB1D1B78180003230340DB009A400748C3
:100E0000FB1D1B785BB29B080A43C0339B001A5042
:100E1000C046BD4603B090BD00ED00E000E100E03B
:100E200080B582B000AF78607B68013B0C4A93428A
:100E300001D9012310E00B4B7A68013A5A60012373
:100E40005B4203211800FFF77DFF064B00229A60EA
:100E5000044B07221A6000231800BD4602B080BD73
:100E6000FFFFFF0010E000E080B584B000AFB96084
:100E70007A600F217B18021C1A70BA687B181B78E5
:100E80005BB211001800FFF75DFFC046BD4604B01D
:100E900080BD80B582B000AF0200FB1D1A70FB1D43
:100EA0001B785BB21800FFF737FFC046BD4602B0A3
:100EB00080BD80B582B000AF78607B681800FFF716
:100EC000AFFF03001800BD4602B080BD80B582B000
:100ED00000AF78607B68042B06D1084B1A68074B7B
:100EE00004210A431A6005E0044B1A68034B0421ED
:100EF0008A431A60C046BD4602B080BD10E000E0E3
:100F000080B500AF02F0BCFEC046BD4680BD00000B
:100F1000B0B586B000AFF860B9607A601723FB18EF
:100F200001221A70164B1B7C012B01D1022322E0F7
:100F3000134B01221A7417257C19124B180000F06C
:100F400059F8030023707B191B78002B0DD10C4B33
:100F500000225A61BB687A681A601723FC18094B93
:100F6000180000F047F803002370054B00221A74A4
:100F70001723FB181B781800BD4606B0B0BDC0464D
:100F80006C00002050C3000080B500AF0D4B5B68C3
:100F90000222134012D00B4B5B680122134005D094
:100FA000084B094ADA60074B084ADA60054B084AE1
:100FB0001A61044B074A1A61002300E0012318005C
:100FC000BD4680BD00200240EFCDAB890504030281
:100FD000BFAE9D8C1615141380B500AF044B5A6834
:100FE000034B02210A435A6000231800BD4680BD0E
:100FF0000020024080B584B000AF7860FFF74EF962
:101000000300FB600FE07B6801330CD07B68002B92
:1010100007D0FFF743F90200FB68D31A7A689A42B7
:1010200001D2032352E02B4B9B6901221340012B79
:10103000E9D0284B9B6902221340022B02D1254B99
:1010400002229A61234B9A6980235B001A40802315
:101050005B009A4235D01F4B9A6980239B001A404F
:1010600080239B009A422CD01A4B9A698023DB0084
:101070001A408023DB009A4223D0164B9A698023C2
:101080001B011A4080231B019A421AD0114B9A6906
:1010900080239B011A4080239B019A4211D00D4B63
:1010A0009A6980239B021A4080239B029A4208D0AF
:1010B000084B9A6980235B021A4080235B029A42A4
:1010C00003D100F009F8012300E000231800BD4619
:1010D00004B080BD0020024080B582B000AF002384
:1010E0007B60494B9A6980235B001A4080235B0038
:1010F0009A420AD1454B5B6902221A43434B5A611B
:101100007B688022520013437B603F4B9A698023A7
:101110009B001A4080239B009A420AD13B4B5B699B
:1011200001221A43394B5A617B6880229200134393
:101130007B60354B9A698023DB001A408023DB00FB
:101140009A420AD1314B5B6908221A432F4B5A61EC
:101150007B688022D20013437B602B4B9A698023EB
:101160001B011A4080231B019A420AD1274B5B695D
:1011700004221A43254B5A617B68802212011343D3
:101180007B60214B9A6980239B011A4080239B013D
:101190009A420AD11D4B5B6910221A431B4B5A61BC
:1011A0007B688022920113437B60174B9A698023EE
:1011B0009B021A4080239B029A4209D1134B5B6920
:1011C00020221A43114B5A617B68202213437B6013
:1011D0000D4B9A6980235B021A4080235B029A427E
:1011E0000AD10A4B5B6940221A43084B5A617B685B
:1011F0008022520213437B60034B7A689A61C04697
:10120000BD4602B080BDC046002002406C000020F8
:10121000B0B584B000AF786039600F23FB180122AD
:101220001A700023BB60294B1B7C012B01D10223C8
:1012300048E0264B01221A740F257C19244B180014
:10124000FFF7D8FE030023707B191B78002B33D1E6
:101250003B68012252421A607B685B68BB6022E0F7
:10126000BB68180000F03AF80F257C19184B1800DD
:10127000FFF7C0FE03002370164B5A68154B082178
:101280008A435A60134B5A68124B13490A405A60FA
:101290007B191B78002B03D03B68BA681A600BE0FF
:1012A000BB688033BB607B689B68DA017B685B68E6
:1012B000D318BA689A42D3D3044B00221A740F236E
:1012C000FB181B781800BD4604B0B0BD6C000020B0
:1012D00050C3000000200240FFFDFFFF80B582B038
:1012E00000AF78600C4B00225A610C4B5A680B4BD4
:1012F000802189000A435A60084B5A68074B08212D
:101300000A435A607B687F22934300221A60C046DA
:10131000BD4602B080BDC0466C00002000200240E7
:1013200080B586B000AF7860396000237B61002310
:10133000FB6000233B6149E13B681B6801217A693E
:1013400091400A001340FB60FB68002B00D13AE19A
:101350003B685B68022B03D03B685B68122B23D190
:101360007B69DA087B6808329200D3583B617B695D
:10137000072213409B000F229A401300DA433B6977
:1013800013403B613B681A697B6907210B409B0056
:101390009A4013003A6913433B617B69DA087B6822
:1013A000083292003969D1503B685B68012B0BD041
:1013B0003B685B68022B07D03B685B68112B03D04E
:1013C0003B685B68122B30D17B689B683B617B6913
:1013D0005B0003229A401300DA433B6913403B61F0
:1013E0003B68DA687B695B009A4013003A691343F3
:1013F0003B617B683A699A607B685B683B6101226C
:101400007B699A401300DA433B6913403B613B68B8
:101410005B681B0901221A407B699A4013003A69F4
:1014200013433B617B683A695A607B681B683B6188
:101430007B695B0003229A401300DA433B69134047
:101440003B613B685B6803221A407B695B009A4002
:1014500013003A6913433B617B683A691A607B6801
:10146000DB683B617B695B0003229A401300DA432F
:101470003B6913403B613B689A687B695B009A401B
:1014800013003A6913433B617B683A69DA603B6851
:101490005A6880235B05134000D194E0514B5A6B8E
:1014A000504B01210A435A634F4A7B699B08023320
:1014B0009B009B583B617B69032213409B000F22DA
:1014C0009A401300DA433B6913403B617A68A023DA
:1014D000DB059A4213D07B68444A93420DD07B6867
:1014E000434A934207D07B68424A934201D1052385
:1014F00006E0062304E0022302E0012300E00023CB
:101500007A6903210A40920093403A6913433B6190
:1015100035497B699B0802339B003A695A50364B28
:101520001B683B61FB68DA433B6913403B613B68E6
:101530005A6880235B02134003D03A69FB68134367
:101540003B612D4B3A691A602B4B5B683B61FB6832
:10155000DA433B6913403B613B685A6880239B0236
:10156000134003D03A69FB6813433B61224B3A694D
:101570005A60214B9B683B61FB68DA433B6913402F
:101580003B613B685A6880235B03134003D03A6990
:10159000FB6813433B61184B3A699A60164BDB6852
:1015A0003B61FB68DA433B6913403B613B685A6827
:1015B00080239B03134003D03A69FB6813433B61CC
:1015C0000D4B3A69DA607B6901337B613B681A68CD
:1015D0007B69DA40131E00D0AEE6C046BD4606B0B9
:1015E00080BDC046001002400000014000040050D1
:1015F00000080050001C00500004014080B584B079
:1016000000AF78600A00BB1C1A807B681B69BA1C9B
:101610001288134004D00F23FB1801221A7003E034
:101620000F23FB1800221A700F23FB181B781800D9
:10163000BD4604B080BD80B582B000AF78600800C0
:101640001100BB1C021C1A807B1C0A1C1A707B1C1C
:101650001B78002B04D0BB1C1A887B689A6103E0BE
:10166000BB1C1A887B689A62C046BD4602B080BD2A
:1016700080B582B000AF78607B68002B01D1012378
:1016800082E07B6841229B5CDBB2002B07D17B6848
:101690004022002199547B68180003F039F87B68D8
:1016A0004122242199547B681B681A687B681B6857
:1016B00001218A431A607B685A687B681B68344939
:1016C0000A401A617B681B689A687B681B6831490D
:1016D0000A409A607B68DB68012B08D17B689A68B6
:1016E0007B681B68802109020A439A6007E07B68D7
:1016F0009A687B681B68842109020A439A607B68A8
:10170000DB68022B04D17B681B68802212015A60BF
:101710007B681B685A687B681B681F490A435A60CC
:101720007B681B68DA687B681B681A490A40DA60C4
:101730007B681A697B685B691A4311007B689B6947
:101740001A027B681B680A43DA607B68D9697B6888
:101750001A6A7B681B680A431A607B681B681A68F0
:101760007B681B6801210A431A607B6800225A6467
:101770007B684122202199547B6800221A637B6890
:1017800042220021995400231800BD4602B080BDBA
:10179000FFFFFFF0FF7FFFFF0080000290B589B0E0
:1017A00002AFF86008007A6019000A23FB18021CD7
:1017B0001A800823FB180A1C1A8000237B61FB682F
:1017C00041229B5CDBB2202B00D0F1E0FB68402281
:1017D0009B5C012B01D10223EBE0FB68402201213D
:1017E0009954FEF75BFD03007B6180231902F868C2
:1017F0007B6900931923012200F006F9031E01D032
:101800000323D6E0FB68412221219954FB68422240
:1018100010219954FB6800225A64FB687A685A6266
:10182000FB680822BA1812885A85FB6800225A639E
:10183000FB685B8D9BB2FF2B11D9FB68FF221A85D9
:10184000FB681B8DDAB280235C040A23FB1819881D
:10185000F8685A4B0093230000F0E8F979E0FB6840
:101860005B8D9AB2FB681A85FB681B8DDAB2802308
:101870009C040A23FB181988F868504B0093230036
:1018800000F0D4F965E07A69B96AFB68180000F0E5
:10189000F4F8031E07D0FB685B6C042B01D1012315
:1018A00087E0032385E0FB685B6A591CFA68516294
:1018B0001A78FB681B689A62FB685B8D9BB2013BE0
:1018C0009AB2FB685A85FB681B8D013B9AB2FB6894
:1018D0001A85FB681B8D002B3BD1FB685B8D9BB28F
:1018E000002B36D0BA6AF8687B6900931300002297
:1018F000802100F089F8031E01D0032359E0FB6822
:101900005B8D9BB2FF2B11D9FB68FF221A85FB6808
:101910001B8DDAB280235C040A23FB181988F8684F
:1019200000230093230000F081F912E0FB685B8D37
:101930009AB2FB681A85FB681B8DDAB280239C047F
:101940000A23FB181988F86800230093230000F08D
:101950006DF9FB685B8D9BB2002B94D17A69B96AF3
:10196000FB68180000F0C8F8031E07D0FB685B6C2A
:10197000042B01D101231CE003231AE0FB681B6840
:101980002022DA61FB681B685A68FB681B680C49F7
:101990000A405A60FB68412220219954FB68422288
:1019A00000219954FB68402200219954002300E053
:1019B00002231800BD4607B090BDC046002000803D
:1019C00000E800FE80B582B000AF78607B681B68DD
:1019D0009B6902221340022B03D17B681B68002203
:1019E0009A627B681B689B6901221340012B07D018
:1019F0007B681B689A697B681B6801210A439A61AE
:101A0000C046BD4602B080BD80B584B000AFF8606E
:101A1000B9603B60FB1D1A701BE03B68013318D0B6
:101A20003B68002B07D0FEF739FC0200BB69D31AD4
:101A30003A689A420DD2FB68412220219954FB68F2
:101A4000422200219954FB6840220021995403232B
:101A50000FE0FB681B689B69BA681340BA68D31A29
:101A60005A425341DBB21A00FB1D1B789A42D4D074
:101A700000231800BD4604B080BD80B584B000AF1F
:101A8000F860B9607A602BE07A68B968FB68180082
:101A900000F06EF8031E01D0012329E0BB6801337A
:101AA0001ED0BB68002B07D0FEF7F8FB02007B6856
:101AB000D31ABA689A4213D2FB685B6C20221A438D
:101AC000FB685A64FB68412220219954FB6842223A
:101AD00000219954FB68402200219954032307E018
:101AE000FB681B689B6902221340022BCCD10023A8
:101AF0001800BD4604B080BD80B584B000AFF8606A
:101B0000B9607A6028E07A68B968FB68180000F06C
:101B10002FF8031E01D0012326E0BB68002B07D05D
:101B2000FEF7BCFB02007B68D31ABA689A4213D254
:101B3000FB685B6C20221A43FB685A64FB684122F5
:101B400020219954FB68422200219954FB684022CD
:101B500000219954032307E0FB681B689B6920223E
:101B60001340202BCFD100231800BD4604B080BD08
:101B700080B584B000AFF860B9607A60FB681B681C
:101B80009B6910221340102B48D11BE0BB68013326
:101B900018D0BB68002B07D0FEF780FB02007B68E3
:101BA000D31ABA689A420DD2FB6841222021995477
:101BB000FB68422200219954FB684022002199547D
:101BC00003232CE0FB681B689B6920221340202B19
:101BD000DCD1FB681B681022DA61FB681B682022DD
:101BE000DA61FB681800FFF7EDFEFB681B685A68B6
:101BF000FB681B680C490A405A60FB6804225A645F
:101C0000FB68412220219954FB684222002199540B
:101C1000FB68402200219954012300E000231800B2
:101C2000BD4604B080BDC04600E800FE90B585B05A
:101C300000AFF860080011007B600A243B19021C09
:101C40001A8009203B180A1C1A70FB681B685B6825
:101C50003A6A510D8022D2000A400E490A43D2430B
:101C60001A4011003B191B889B059A0D3B181B78E5
:101C70001804FF231B0403401A437B681A433B6A82
:101C80001A43FB681B680A435A60C046BD4605B04C
:101C900090BDC046FF63FF0380B582B000AF78609F
:101CA00039607B6841229B5CDBB2202B38D17B689A
:101CB00040229B5C012B01D1022332E07B68402251
:101CC000012199547B684122242199547B681B6827
:101CD0001A687B681B6801218A431A607B681B684D
:101CE0001A687B681B6811490A401A607B681B6888
:101CF00019687B681B683A680A431A607B681B682E
:101D00001A687B681B6801210A431A607B684122BC
:101D1000202199547B68402200219954002300E03F
:101D200002231800BD4602B080BDC046FFEFFFFF92
:101D300080B584B000AF786039600023FB607B68B9
:101D400041229B5CDBB2202B39D17B6840229B5C1B
:101D5000012B01D1022333E07B68402201219954F9
:101D60007B684122242199547B681B681A687B6830
:101D70001B6801218A431A607B681B681B68FB6033
:101D8000FB68114A1340FB603B681B02FA6813436F
:101D9000FB607B681B68FA681A607B681B681A68BE
:101DA0007B681B6801210A431A607B68412220215D
:101DB00099547B68402200219954002300E00223BB
:101DC0001800BD4604B080BDFFF0FFFF80B582B0B3
:101DD00000AF78602B4B1B68E022934319007B68AF
:101DE0001A68284B0A431A60274B5A68264B274922
:101DF0000A405A60244B1A68234B24490A401A604F
:101E0000214BDA68204B21490A40DA601E4B9A6860
:101E10001D4B1E490A409A607B685A6880235B020A
:101E2000134006D0184B1A68174B802149020A4309
:101E30001A607B685A6880239B02134006D0124BBD
:101E40005A68114B802149020A435A607B685B68DB
:101E50000122134006D00C4B9A680B4B802149029B
:101E60000A439A607B685B680222134006D0064BE7
:101E7000DA68054B802149020A43DA60C046BD4654
:101E800002B080BD0070004000040140FFFFFEFF73
:101E900080B500AF044B1A68034B10210A431A6047
:101EA000C046BD4680BDC0460070004080B582B0CF
:101EB00000AF7860044B5968034B7A680A435A6054
:101EC000C046BD4602B080BD0070004080B582B003
:101ED00000AF7860054B5A687B68D943034B0A40D2
:101EE0005A60C046BD4602B080BDC046007000408A
:101EF00080B500AF074B1A68064B02210A431A60EF
:101F0000054B1A69044B04210A431A6130BFC046CD
:101F1000BD4680BD0070004000ED00E080B500AF20
:101F2000044B1A68034B8021C9000A431A60C0465B
:101F3000BD4680BD0070004080B500AF044B1A68FC
:101F4000034B802189000A431A60C046BD4680BD0C
:101F50000070004080B586B000AF786000233B6120
:101F60007B681B680122134000D186E0C24BDB680E
:101F70000C221340082B0ED0BF4BDB680C22134001
:101F80000C2B15D1BC4BDA6880235B021A408023EE
:101F90005B029A420CD1B84B1A6880239B02134013
:101FA00000D169E07B685B68002B65D101231FE3EA
:101FB0007B685A6880235B029A4207D1AE4B1A684D
:101FC000AD4B802149020A431A6027E07B685A68BA
:101FD000A023DB029A420ED1A74B1A68A64B8021A0
:101FE000C9020A431A60A44B1A68A34B8021490214
:101FF0000A431A6012E0A04B1A689F4B9F490A409F
:102000001A609D4B1A6880235B021340FB60FB68DB
:10201000994B1A68984B9A490A401A607B685B682A
:10202000002B14D0FEF73AF903003B6108E0FEF7FD
:1020300035F902003B69D31A642B01D90323D7E297
:102040008D4B1A6880239B021340F0D015E0FEF7F9
:1020500025F903003B6108E0FEF720F902003B6927
:10206000D31A642B01D90323C2E2834B1A6880235D
:102070009B021340F0D100E0C0467B681B6802223F
:10208000134000D16EE07C4BDB680C221340042B24
:102090000BD0794BDB680C2213400C2B1CD1764BF8
:1020A000DA6880235B02134016D1734B1B6804224D
:1020B000134005D07B68DB68012B01D0012397E238
:1020C0006D4B5B686F4A134019007B681B691A02ED
:1020D000694B0A435A6045E07B68DB68002B28D0D7
:1020E000654B1B680922934319007B68DA68624BD1
:1020F0000A431A60FEF7D2F803003B6108E0FEF7DE
:10210000CDF802003B69D31A022B01D903236FE2F9
:10211000594B1B6804221340F1D0574B5B68594A56
:10212000134019007B681B691A02534B0A435A601B
:1021300018E0514B1A68504B01218A431A60FEF790
:10214000ADF803003B6108E0FEF7A8F802003B6928
:10215000D31A022B01D903234AE2474B1B680422FE
:102160001340F1D17B681B681022134000D1C6E0F8
:10217000414BDB680C22134064D13F4B1A6880232B
:102180009B00134005D07B689B69002B01D1012384
:102190002EE27B681A6A384B5968E0231B020B4019
:1021A0009A421DD97B681B6A180000F0DDFB031EF4
:1021B00001D001231CE2304B5B68334A1340190005
:1021C0007B681A6A2C4B0A435A602B4B5B681B02D4
:1021D000190A7B68DB691A06274B0A435A601CE020
:1021E000254B5B68284A134019007B681A6A224B0A
:1021F0000A435A60204B5B681B02190A7B68DB6943
:102200001A061D4B0A435A607B681B6A180000F0CF
:10221000ABFB031E01D00123EAE17B681B6A5B0B69
:102220000133802212029A40134BDB681B090F21F5
:102230000B401649CB5CDA40154B1A600020FEF7C4
:1022400003F85CE07B689B69002B3ED00A4B1A6860
:10225000094B802149000A431A60FEF71FF803006A
:102260003B6117E0FEF71AF802003B69D31A022B14
:1022700010D90323BCE1C04600100240FFFFFEFF5F
:10228000FFFFFBFFFFE0FFFFFF1FFFFFAC49000860
:1022900014000020C84B1A6880239B001340E1D033
:1022A000C54B5B68C54A134019007B681A6AC24B6C
:1022B0000A435A60C04B5B681B02190A7B68DB69E2
:1022C0001A06BD4B0A435A6019E0BB4B1A68BA4B59
:1022D000BB490A401A60FDF7E1FF03003B6108E0DB
:1022E000FDF7DCFF02003B69D31A022B01D903235F
:1022F0007EE1B14B1A6880239B001340F0D17B68CC
:102300001B680822134036D07B685B69002B19D00C
:10231000A94B1A6DA84B01210A431A65FDF7BEFFB0
:1023200003003B6108E0FDF7B9FF02003B69D31AE7
:10233000022B01D903235BE19F4B1B6D022213404B
:10234000F1D018E09C4B1A6D9B4B01218A431A6512
:10235000FDF7A4FF03003B6108E0FDF79FFF0200CB
:102360003B69D31A022B01D9032341E1924B1B6D28
:1023700002221340F1D17B681B680422134000D174
:10238000AFE01723FB1800221A708B4B9A6B802347
:102390005B0513400AD1884B9A6B874B8021490516
:1023A0000A439A631723FB1801221A70854B1A6897
:1023B00080235B0013401AD1824B1A68814B802125
:1023C00049000A431A60FDF769FF03003B6108E01A
:1023D000FDF764FF02003B69D31A642B01D9032384
:1023E00006E1784B1A6880235B001340F0D07B68CD
:1023F0009A6880235B009A4207D16F4B1A6D6E4B2F
:10240000802149000A431A6531E07B689B68002BF4
:102410000CD1694B1A6D684B69490A401A65664BC5
:102420001A6D654B68490A401A6520E07B689A6816
:10243000A023DB009A420ED15F4B1A6D5E4B8021C8
:10244000C9000A431A655C4B1A6D5B4B8021490039
:102450000A431A650BE0584B1A6D574B58490A400E
:102460001A65554B1A6D544B57490A401A657B68DB
:102470009B68002B15D0FDF711FF03003B6109E0BD
:10248000FDF70CFF02003B69D31A504A934201D971
:102490000323ADE0484B1A6D80239B001340EFD01F
:1024A00014E0FDF7FBFE03003B6109E0FDF7F6FEDB
:1024B00002003B69D31A454A934201D9032397E0AE
:1024C0003D4B1A6D80239B001340EFD11723FB185F
:1024D0001B78012B05D1384B9A6B374B3C490A408E
:1024E0009A637B685B6A002B00D180E0324BDB682B
:1024F0000C2213400C2B00D177E07B685B6A022B27
:1025000045D12D4B1A682C4B32490A401A60FDF711
:10251000C5FE03003B6108E0FDF7C0FE02003B6919
:10252000D31A022B01D9032362E0234B1A688023BC
:102530009B041340F0D1204BDB68274A134019005D
:102540007B689A6A7B68DB6A1A437B681B6B1A4359
:10255000194B0A43DA60184B1A68174B802149045B
:102560000A431A60FDF79AFE03003B6108E0FDF79D
:1025700095FE02003B69D31A022B01D9032337E0F1
:102580000D4B1A6880239B041340F0D02FE00A4BB8
:102590001A68094B0F490A401A60FDF77FFE0300D5
:1025A0003B611BE0FDF77AFE02003B69D31A022B68
:1025B00014D903231CE0C04600100240FF1FFFFF98
:1025C000FFFEFFFF00700040FFFBFFFF88130000CD
:1025D000FFFFFFEFFFFFFFFEFFFF02FF064B1A6842
:1025E00080239B041340DDD101E0012300E00023A0
:1025F0001800BD4606B080BD0010024080B584B012
:1026000000AF786039600023FB60834B1B680122B8
:1026100013403A689A4211D97F4B1B6801229343B9
:1026200019007D4B3A680A431A607B4B1B680122F4
:1026300013403A689A4201D00123E8E07B681B68A6
:102640000222134009D0754BDB68F0229343190036
:102650007B689A68714B0A43DA607B681B680122C9
:10266000134000D189E07B685B68022B07D16B4B7C
:102670001A6880239B02134020D10123C7E07B68A6
:102680005B68032B07D1654B1A6880239B041340BA
:1026900014D10123BBE07B685B68012B06D15F4B43
:1026A0001B680422134009D10123B0E05B4B1A6878
:1026B00080239B00134001D10123A8E0574BDB6826
:1026C0000322934319007B685A68544B0A43DA602B
:1026D000FDF7E4FD0300FB607B685B68022B11D112
:1026E00009E0FDF7DBFD0200FB68D31A4C4A934278
:1026F00001D903238BE0494BDB680C221340082BE4
:10270000EFD13AE07B685B68032B11D109E0FDF75C
:10271000C5FD0200FB68D31A414A934201D9032345
:1027200075E03E4BDB680C2213400C2BEFD124E00C
:102730007B685B68012B1BD109E0FDF7AFFD020050
:10274000FB68D31A364A934201D903235FE0334B27
:10275000DB680C221340042BEFD10EE0FDF79EFD49
:102760000200FB68D31A2E4A934201D903234EE09C
:102770002A4BDB680C221340F0D1274B1B68012247
:1027800013403A689A4211D2234B1B6801229343AB
:102790001900214B3A680A431A601F4B1B6801223B
:1027A00013403A689A4201D0012330E07B681B68ED
:1027B0000422134009D0194BDB681A4A1340190050
:1027C0007B68DA68154B0A43DA607B681B6808226D
:1027D00013400AD0114BDB68134A134019007B6881
:1027E0001B69DA000D4B0A43DA6000F023F80100A0
:1027F0000A4BDB681B090F2213400C4AD35C0A000A
:10280000DA400B4B1A600020FDF71EFD0023180074
:10281000BD4604B080BDC04600200240001002400A
:1028200088130000FFF8FFFFFFC7FFFFAC49000857
:102830001400002080B586B000AF0023FB600023A9
:10284000BB6000237B6000237B6100233B6000238F
:102850003B613B4BDB68FB60FB680C221340082BA1
:102860000ED00C2B0FD0042B57D1354B1B681022E8
:10287000134002D0334B3B615DE0334B3B615AE088
:10288000324B3B6157E0FB689B0C0F221340304AF0
:10289000D35CBB60FB689B0D0322134001337B605C
:1028A000274BDA6880235B0213400FD0B9680A0017
:1028B0005201521A93019B1ADB005B185B02796884
:1028C0001800FDF721FC03007B6123E01C4B1B6813
:1028D000102213400FD0B9680A005201521A930116
:1028E0009B1ADB005B181B0279681800FDF70CFCD3
:1028F00003007B610EE0B9680A005201521A93018D
:102900009B1ADB005B189B0279681800FDF7FCFB43
:1029100003007B617B693B610DE0094B5B685B0BEE
:10292000072213403B603B680133802212029A4029
:1029300013003B61C0463B691800BD4606B080BD30
:102940000010024000093D000024F40000127A004B
:10295000C449000880B500AF024B1B681800BD4693
:1029600080BDC0461400002080B584B000AF786000
:102970000023FB600023BB60234BDB68F022134085
:102980002BD1214B9A6B80235B05134006D01F4B44
:102990001A68C0235B011340FB6012E01A4B9A6B6C
:1029A000194B802149050A439A63184B1A68C023C2
:1029B0005B011340FB60144B9A6B134B14490A40A4
:1029C0009A63FA68C0235B019A4206D17A68C023F1
:1029D0001B029A4201D10123BB600E4B1B680122EE
:1029E000934319000B4BBA680A431A60094B1B68E2
:1029F00001221340BA689A4201D0012300E000236B
:102A00001800BD4604B080BD0010024000700040B8
:102A1000FFFFFFEF0020024080B586B000AF786076
:102A200000233B610023FB607B681B68202213406E
:102A300000D1C4E01723FB1800221A70804B9A6B58
:102A400080235B0513400AD17D4B9A6B7C4B802120
:102A500049050A439A631723FB1801221A70794B20
:102A60001A6880235B0013401AD1764B1A68754BA5
:102A7000802149000A431A60FDF710FC03003B6106
:102A800008E0FDF70BFC02003B69D31A642B01D967
:102A90000323D1E06B4B1A6880235B001340F0D016
:102AA000674B1A68C0239B031340FB607B685A681E
:102AB000C0239B031340FA689A4210D07B685A687F
:102AC000C0239B021A40C0239B029A4207D15C4B51
:102AD0001A6880239B02134001D00123ACE0584BBD
:102AE0001A6DC0239B021340FB60FB68002B3BD098
:102AF0007B685A68C0239B021340FA689A4233D01D
:102B00007B681B68202213402ED04D4B1B6D4E4A14
:102B10001340FB604A4B1A6D494B802109030A435D
:102B20001A65474B1A6D464B48490A401A65444B93
:102B3000FA681A65FA6880235B00134014D0FDF729
:102B4000ADFB03003B6109E0FDF7A8FB02003B6918
:102B5000D31A3F4A934201D903236DE0384B1A6DD3
:102B600080239B001340EFD07B685A68C0239B02F0
:102B70001A40C0239B029A420CD1314B1B68354A44
:102B8000134019007B685A68C0239B031A402C4BE2
:102B90000A431A602A4B196D7B685A68C0239B024E
:102BA0001A40274B0A431A651723FB181B78012B81
:102BB00005D1234B9A6B224B27490A409A637B68C5
:102BC0001B680222134009D01D4BDB6C0C2293437F
:102BD00019007B689A681A4B0A43DA647B681B68A1
:102BE0000422134009D0164BDB6C1C4A1340190019
:102BF0007B68DA68124B0A43DA647B681B68082238
:102C0000134009D00E4BDB6C154A134019007B684A
:102C10001A690B4B0A43DA647B681B6880221340F5
:102C200009D0074BDB6C0F4A134019007B685A69C7
:102C3000034B0A43DA6400231800BD4606B080BD8A
:102C40000010024000700040FFFFFCFFFFFFF7FF95
:102C500088130000FFFFCFFFFFFFFFEFFFF3FFFF31
:102C6000FFCFFFFFFFFFF3FF80B582B000AF7860BA
:102C70007B68002B01D101231EE07B6835229B5C21
:102C8000DBB2002B07D17B683422002199547B688A
:102C9000180001F06DFD7B683522022199547B6894
:102CA0001A687B6804331900100000F02DFA7B6865
:102CB00035220121995400231800BD4602B080BD81
:102CC00080B582B000AF78607B68352202219954CC
:102CD0007B681B681A687B681B6801210A431A60BD
:102CE0007B6835220121995400231800BD4602B0AB
:102CF00080BD000080B582B000AF78607B6835226F
:102D0000022199547B681B681B6A0A4A134007D149
:102D10007B681B681A687B681B6801218A431A60FC
:102D20007B6835220121995400231800BD4602B06A
:102D300080BDC0461111000080B582B000AF786040
:102D40007B681B681B6902221340022B24D17B681D
:102D50001B68DB6802221340022B1DD17B681B68B5
:102D6000032252421A617B6801221A757B681B6834
:102D70009B690322134004D07B68180000F0ACF973
:102D800007E07B68180000F09FF97B68180000F0EE
:102D9000ABF97B6800221A757B681B681B690422EB
:102DA0001340042B25D17B681B68DB680422134089
:102DB000042B1ED17B681B68052252421A617B6876
:102DC00002221A757B681B689A69C0239B00134016
:102DD00004D07B68180000F07FF907E07B681800DA
:102DE00000F072F97B68180000F07EF97B68002221
:102DF0001A757B681B681B6908221340082B24D1B5
:102E00007B681B68DB6808221340082B1DD17B6898
:102E10001B68092252421A617B6804221A757B687A
:102E20001B68DB690322134004D07B68180000F0A4
:102E300053F907E07B68180000F046F97B6818003A
:102E400000F052F97B6800221A757B681B681B69C9
:102E500010221340102B25D17B681B68DB681022E1
:102E60001340102B1ED17B681B68112252421A613D
:102E70007B6808221A757B681B68DA69C0239B008F
:102E8000134004D07B68180000F026F907E07B6847
:102E9000180000F019F97B68180000F025F97B682C
:102EA00000221A757B681B681B6901221340012BE5
:102EB0000FD17B681B68DB6801221340012B08D10E
:102EC0007B681B68022252421A617B68180001F07D
:102ED00095FB7B681B681B6940221340402B0FD178
:102EE0007B681B68DB6840221340402B08D17B685D
:102EF0001B68412252421A617B68180000F0FCF8FE
:102F0000C046BD4602B080BD80B584B000AF7860D9
:102F100039600023FB607B6834229B5C012B01D16C
:102F20000223CAE07B683422012199547B68352250
:102F3000022199547B681B689B68FB60FB687722C1
:102F40009343FB60FB685F4A1340FB607B681B6830
:102F5000FA689A603B681B68402B00D178E00ED875
:102F6000102B00D18BE003D8002B00D180E09BE038
:102F7000202B00D18AE0302B00D18EE094E0702B22
:102F800017D004D8502B43D0602B51D08CE0802236
:102F90005201934204D080229201934224D083E0D4
:102FA0007B681B689A687B681B6807218A439A6064
:102FB0007AE07B6818683B6899683B685A683B68A8
:102FC000DB6800F081F97B681B689B68FB60FB682D
:102FD00077229343FB60FB6877221343FB607B6897
:102FE0001B68FA689A605FE07B6818683B689968BC
:102FF0003B685A683B68DB6800F066F97B681B68D1
:103000009A687B681B688021C9010A439A604BE07B
:103010007B6818683B6859683B68DB681A0000F0F9
:10302000CBF87B681B685021180000F02DF93BE0BD
:103030007B6818683B6859683B68DB681A0000F0D9
:10304000EDF87B681B686021180000F01DF92BE08B
:103050007B6818683B6859683B68DB681A0000F0B9
:10306000ABF87B681B684021180000F00DF91BE0ED
:103070007B681B680021180000F006F914E07B68EB
:103080001B681021180000F0FFF80DE07B681B683A
:103090002021180000F0F8F806E07B681B6830215A
:1030A000180000F0F1F8C0467B68352201219954E0
:1030B0007B6834220021995400231800BD4604B0D7
:1030C00080BDC046FF00FFFF80B582B000AF7860D2
:1030D000C046BD4602B080BD80B582B000AF78600A
:1030E000C046BD4602B080BD80B582B000AF7860FA
:1030F000C046BD4602B080BD80B582B000AF7860EA
:10310000C046BD4602B080BD80B584B000AF7860D7
:1031100039600023FB607B681B68FB607A68802352
:10312000DB059A4207D07B68204A934203D07B6834
:103130001F4A934201D1012300E00023002B08D055
:10314000FB6870229343FB603B685B68FA6813433B
:10315000FB607A688023DB059A4207D07B68134ABC
:10316000934203D07B68124A934201D1012300E0CD
:103170000023002B08D0FB680E4A1340FB603B681D
:10318000DB68FA681343FB607B68FA681A603B6887
:103190009A687B68DA623B681A687B689A627B6827
:1031A00001225A61C046BD4604B080BD00080140FE
:1031B00000140140FFFCFFFF80B586B000AFF8604F
:1031C000B9607A6000237B6100233B61FB681B6A66
:1031D0003B61FB681B6A012293431A00FB681A6279
:1031E000FB689B697B617B69F02293437B617B6811
:1031F0001B017A6913437B613B690A2293433B615C
:103200003A69BB6813433B61FB687A699A61FB6862
:103210003A691A62C046BD4606B080BD80B586B028
:1032200000AFF860B9607A6000237B6100233B61E6
:10323000FB681B6A102293431A00FB681A62FB6842
:103240009B697B61FB681B6A3B617B690D4A13408C
:103250007B617B681B037A6913437B613B69A02216
:1032600093433B61BB681B013A6913433B61FB68B5
:103270007A699A61FB683A691A62C046BD4606B02F
:1032800080BDC046FF0FFFFF80B584B000AF7860FF
:103290000A00BB1C1A800023FB607B689B68FB60F4
:1032A000FB6870229343FB60BB1C1B8807221343FF
:1032B0009BB21A00FB681343FB607B68FA689A6054
:1032C000C046BD4604B080BD80B586B000AFF86092
:1032D000B9607A603B6000237B61FB689B687B611F
:1032E0007B69094A13407B613B681A027B681A4379
:1032F000BB6813437A6913437B61FB687A699A6000
:10330000C046BD4606B080BDFF00FFFF80B582B05D
:1033100000AF786039607B6834229B5C012B01D15F
:10332000022332E07B683422012199547B683522E4
:10333000022199547B681B685A687B681B6870215E
:103340008A435A607B681B6859683B681A687B68C7
:103350001B680A435A607B681B689A687B681B6815
:1033600080218A439A607B681B6899683B685A6829
:103370007B681B680A439A607B6835220121995457
:103380007B6834220021995400231800BD4602B006
:1033900080BD000080B58EB000AFFCF741FF00F0AB
:1033A000BBF9D54B9A6BD44B802149050A439A63EC
:1033B000FEF7C2FDFEF7B2FDCF4B9A6BCE4B01215B
:1033C0000A439A63CC4B5A6BCB4B04210A435A6392
:1033D00000F09AFB00F09CFA00F0ECFA00F01AFA08
:1033E00000F03EFB00233B63C44B00221A700DE04B
:1033F000C34B1A68C24B08210A431A6000F0B0FCA4
:103400000300012B02D1BF4B00221A60BC4B5B684A
:1034100002221340022BEBD03B0001221A603B003A
:1034200000225A603B0000229A603A00A023DB058C
:1034300011001800FDF774FF0A20FCF739FFA023E4
:10344000DB0501211800FEF7D9F80300012B3CD160
:10345000FCF724FF0300FB6221E0FCF71FFF0200E2
:10346000FB6AD21AA84B1B689A4218D9A023DB0525
:1034700001211800FEF7C2F80300012B0FD1A14B68
:103480001B68012B03D19F4B02221A601CE09D4B4D
:103490001B68022B18D19B4B01221A6014E0FCF729
:1034A000FDFE0200FB6AD21A974B1B68F533FF330F
:1034B0009A420AD2A023DB0501211800FEF79EF8EC
:1034C0000300012BC9D000E0C0468E4B1B68012BC6
:1034D0005FD0022B00D1E6E0002B00D00AE100F023
:1034E0003FFC0300BB6100F0D2FB03007B61BB69C2
:1034F0005A425341DBB27A69013A51424A41D2B24F
:103500001340DBB2002B1CD000F020FE00F0B9FC11
:10351000A023DB05002270211800FEF78CF800F0D4
:10352000D3FB00F0EBFB00F003FC764B01221A60AA
:10353000744B1B681A00754B1100180000F062FBF9
:10354000D5E0BB69012B08D17B69002B05D100F0C8
:1035500087FC00F02DFEC046C9E0BB69012B00D0FE
:10356000C5E07B69012B00D0C1E000F0EFFD00F069
:1035700088FCA023DB05002270211800FEF75BF811
:1035800000F0A2FB00F0BAFB00F0D2FB00F02EFC32
:10359000ADE000F0E5FB03007B6200F078FB030088
:1035A0003B627B6A012B02D1564B00221A603B6AB8
:1035B000002B04D100F054FCFF2000F02BFEA023D0
:1035C000DB0501211800FEF719F80300012B48D193
:1035D0003B6A012B45D100F09FFB00F041FC00232A
:1035E0007B633BE0FCF75AFE0300FB6112E05A20CC
:1035F00000F072FCA023DB05002270211800FEF70A
:103600001AF800F055FBA023DB05012270211800F9
:10361000FEF711F8FCF742FE0200FB69D21A3C4BA0
:103620001B689A42E3D3FCF739FE0200FB69D21A09
:10363000374B1B689A420ED900F088FDA023DB05AA
:10364000002270211800FDF7F6FF00F03DFB314B22
:103650001800FCF72DFE7B6B01337B637B6B032B28
:10366000C0DDA023DB0501211800FDF7C7FF031E05
:103670003FD100F06BFD00F004FCA023DB0500222D
:1036800070211800FDF7D7FF00F01EFB00F050FB83
:103690001C4B1B681A001D4B1100180000F0B2FAF9
:1036A00000F0A4FB25E02B23FB1800221A700BE08E
:1036B00000F0D6FB32215A2000F0CFFD00F06EFB67
:1036C00002002823FB181A80A023DB050121180023
:1036D000FDF794FF031EEBD00A4B1B681A000B4B3F
:1036E0001100180000F08EFA00F080FB7FE6C04663
:1036F0007DE6C0467BE6C046001002406400002024
:1037000000700040040000200800002000000808AD
:1037100010000020DC05000080B598B000AF3A4BE7
:103720001B683A4A1A40384B802109010A431A6043
:103730002C217B1810221A607B1801229A617B18B9
:103740000022DA617B18A02212021A627B18002282
:103750005A627B181800FEF7FDFB031E07D0A22358
:10376000FF331A002A4B1100180000F061FF1821E6
:103770007B180F221A607B1800225A607B180022E7
:103780009A607B180022DA607B1800221A617B188D
:1037900000211800FEF732FF031E07D0B023FF33CD
:1037A0001A001B4B1100180000F042FF3B000822DA
:1037B0001A603B0000221A613B001800FFF72CF949
:1037C000031E06D0DB235A00114B1100180000F035
:1037D0002FFFFFF7BFF80200FA2399001000FCF753
:1037E00093FC03001800FDF764FB0420FDF76EFB5B
:1037F00001235B42002200211800FDF735FBC04683
:10380000BD4618B080BDC04600700040FFE7FFFF16
:103810009C49000880B582B000AF384B384A1A6026
:10382000364B00221A64354BC02212065A60334BC5
:1038300000229A60314B0022DA63304B01221A6178
:103840002E4B0022DA602D4B01221A622B4B0022F4
:103850005A622A4B0022DA62284BC222FF329A6255
:10386000264B00221A63254B04225A61234B002267
:103870005A63224B00229A61204B00229A631F4B0D
:103880000022DA611D4B1800FCF72AFD031E06D04A
:10389000F0235A001B4B1100180000F0C9FE3B003A
:1038A000194A1A603B00802252015A603A00134BB9
:1038B00011001800FDF788F8031E07D0EA23FF3334
:1038C0001A00104B1100180000F0B2FE3B000F4A26
:1038D0001A603A00094B11001800FDF775F8031E35
:1038E00007D0F223FF331A00064B1100180000F036
:1038F0009FFEC046BD4602B080BDC04620010020EC
:10390000002401409C490008020000040000024419
:1039100080B500AF224B234A1A60214BE122D2002E
:103920005A601F4B00229A601D4B0122DA601C4B2B
:1039300000221A611A4B00225A61194B00229A6127
:10394000174B0022DA61164B00221A62144B180042
:10395000FDF78EFE031E05D0134A144B110018000C
:1039600000F066FE0E4B00211800FEF795F9031ECD
:1039700006D083239A000D4B1100180000F058FE6A
:10398000074B00211800FEF7D3F9031E05D0084AA3
:10399000064B1100180000F04BFEC046BD4680BD2E
:1039A0008800002000540040050200009C490008E7
:1039B0001302000080B586B000AF244B8022D205F0
:1039C0001A60224B224A5A60204B00229A601F4BF9
:1039D00083221201DA601D4B00221A611B4B180072
:1039E000FFF742F9031E05D01A4A1B4B11001800BD
:1039F00000F01EFE08217B18802252011A607A18FE
:103A0000124B11001800FFF77FFA031E06D08B231C
:103A10009A00114B1100180000F00AFE3B00002232
:103A20001A603B0000225A603A00084B110018004F
:103A3000FFF76CFC031E05D0084A074B1100180065
:103A400000F0F6FDC046BD4606B080BDE80000208F
:103A50004B1D0000260200009C49000833020000B4
:103A600080B586B000AF234B234A1A60214B002259
:103A70005A60204B00229A601E4B0022DA601D4BD8
:103A800000221A611B4B1800FFF7EEF8031E05D049
:103A90001A4A1B4B1100180000F0CAFD08217B18C0
:103AA000802252011A607A18124B11001800FFF799
:103AB0002BFA031E06D093239A00114B1100180015
:103AC00000F0B6FD3B0000221A603B0000225A6065
:103AD0003A00084B11001800FFF718FC031E05D030
:103AE000084A074B1100180000F0A2FDC046BD4671
:103AF00006B080BD8401002000080140460200009D
:103B00009C4900085302000090B589B000AF3A4BC1
:103B1000DA6A394B01210A43DA62374BDB6A012248
:103B20001340BB60BB68344BDA6A334B02210A4353
:103B3000DA62314BDB6A022213407B607B682F49DB
:103B4000A023DB0501221800FDF775FD2C4B012297
:103B500009211800FDF76FFD0C243B19274A1A6054
:103B60003B1901225A603B1900229A603B1900223E
:103B7000DA603A19A023DB0511001800FDF7D0FB2D
:103B800021007B1809221A607B1801225A607B18D9
:103B900000229A607B180022DA600C007B18184A19
:103BA00019001000FDF7BCFB21007B1802221A60EF
:103BB0007B1800225A607B1800229A600C007B1848
:103BC0000F4A19001000FDF7ABFB21007B18802283
:103BD00052001A607B1800225A607B1800229A60FB
:103BE0007A18A023DB0511001800FDF799FBC046E9
:103BF000BD4609B090BDC04600100240FC840000E4
:103C00000004005080B582B000AF78603960FDF7E5
:103C1000BBF9164B164A1A60164B00221A60154B58
:103C2000134A5A60134B07229A60134A114B110032
:103C30001800FDF7EDFA0FE00C4B1B683A6819000D
:103C40000220FDF765F9031E04D1084B1B681A1DFD
:103C5000064B1A60FDF7C0F9044B1B68074A9342F4
:103C6000EAD9C046BD4602B080BDC0460000002073
:103C7000000008083400002044000020FE0308086B
:103C800080B500AFFCF7FEFAC046BD4680BD80B5EA
:103C900082B000AF00F082F803007B607B68C82B25
:103CA00001DD012300E000231800BD4602B080BD05
:103CB00080B500AFA023DB05012280211800FDF7AD
:103CC000BAFCC046BD4680BD80B500AFA023DB0571
:103CD000002280211800FDF7AEFCC046BD4680BD25
:103CE00080B500AF044B012208211800FDF7A3FCAA
:103CF000C046BD4680BDC0460004005080B500AF40
:103D0000044B002208211800FDF795FCC046BD4673
:103D100080BDC0460004005080B500AFA023DB0585
:103D2000012204211800FDF786FCC046BD4680BD77
:103D300080B500AFA023DB05002204211800FDF7A9
:103D40007AFCC046BD4680BD80B500AFA023DB0530
:103D5000012208211800FDF76EFCC046BD4680BD5B
:103D600080B500AF80235A00A023DB0511001800A6
:103D7000FDF744FC031E01D101230CE080235A000F
:103D8000A023DB0511001800FDF738FC0300012B10
:103D900001D10023FFE71800BD4680BD80B582B089
:103DA00000AFFFF7D1FF104B1800FCF707FCFA2318
:103DB0009A000D4B11001800FCF794FC0A4B1800F8
:103DC000FCF724FD0200BB1D1A803B1DBA1D1288A2
:103DD0001A80054B1800FCF745FC3B1D1B8818009A
:103DE000BD4602B080BDC0462001002080B500AFB6
:103DF00080235B001800FEF769F8084B1A68074B30
:103E000004210A431A6080235B001800FEF74EF875
:103E1000FEF76EF8C046BD4680BDC046007000404B
:103E200080B586B002AF0200FB1D1A70BB1D0A1CD4
:103E30001A700C217B18FA1D12781A707B18BA1DA3
:103E400012785A707A18054864230093022380215F
:103E5000FDF7A4FCC046BD4604B080BD880000202C
:103E600080B500AFFFF73CFF002340211800FFF7AB
:103E7000D7FF2F2350211800FFF7D2FFC046BD46C1
:103E800080BD80B500AF002300211800FFF7C8FFF8
:103E9000FFF734FFC046BD4680BD000080B582B04C
:103EA00000AF78600B4B1B6800225A62094B180068
:103EB000FEF706FFC046074B1B685B6A7A689A42AA
:103EC000F9D8044B1800FEF715FFC046BD4602B0F6
:103ED00080BDC046E8000020F0B589B000AF020008
:103EE000BB1D1A801F217B1816221A701E257B19F4
:103EF00017221A701D26BB1918221A701C23FB18D2
:103F00001A221A701B22BB181B221A701A203B1887
:103F10001E221A7064237B61BB1D1B883B61BB1D85
:103F20001B88323BFB603B69DAB20C003B191B7803
:103F300011001800FFF774FF7B191B78002118008F
:103F4000FFF76EFFBB191B7800211800FFF768FF11
:103F50001C23FB181B7800211800FFF761FF1B22B0
:103F6000BB181B7800211800FFF75AFF1A203B18D6
:103F70001B7800211800FFF753FF7B691800FCF73E
:103F800097F93B191B7800211800FFF749FF3B699F
:103F9000DAB27B191B7811001800FFF741FFBB193B
:103FA0001B7800211800FFF73BFF1C23FB181B7830
:103FB00000211800FFF734FF1B22BB181B780021DB
:103FC0001800FFF72DFF1A203B181B78002118005E
:103FD000FFF726FF7B691800FCF76AF93B191B788D
:103FE00000211800FFF71CFF7B191B780021180027
:103FF000FFF716FF3B69DAB2BB191B7811001800F6
:10400000FFF70EFF1C23FB181B7800211800FFF799
:1040100007FF1B22BB181B7800211800FFF700FFC9
:104020001A203B181B7800211800FFF7F9FE7B6966
:104030001800FCF73DF93B191B7800211800FFF729
:10404000EFFE7B191B7800211800FFF7E9FEBB1972
:104050001B7800211800FFF7E3FE3B69DAB21C234E
:10406000FB181B7811001800FFF7DAFE1B22BB18A3
:104070001B7800211800FFF7D3FE1A203B181B788D
:1040800000211800FFF7CCFE7B691800FCF710F93F
:104090003B191B7800211800FFF7C2FE7B191B7823
:1040A00000211800FFF7BCFEBB191B780021180087
:1040B000FFF7B6FE1C23FB181B7800211800FFF742
:1040C000AFFE3B69DAB21B217B181B781100180088
:1040D000FFF7A6FE1A203B181B7800211800FFF7F7
:1040E0009FFE7B691800FCF7E3F83B191B78002161
:1040F0001800FFF795FE7B191B7800211800FFF7C9
:104100008FFEBB191B7800211800FFF789FE1C23C6
:10411000FB181B7800211800FFF782FE1B22BB183A
:104120001B7800211800FFF77BFE3B69DAB21A20EA
:104130003B181B7811001800FFF772FE7B6918000E
:10414000FCF7B6F8C046BD4609B0F0BD80B500AF7B
:10415000162300211800FFF763FE17230021180023
:10416000FFF75EFE182300211800FFF759FE192300
:1041700000211800FFF754FE1A2300211800FFF752
:104180004FFE1B2300211800FFF74AFE1C230021CD
:104190001800FFF745FE1D2300211800FFF740FE21
:1041A0001E2300211800FFF73BFEC046BD4680BD20
:1041B00080B500AF162300211800FFF731FE17234A
:1041C00000211800FFF72CFE182300211800FFF72C
:1041D00027FE1923FF211800FFF722FE1A230021D2
:1041E0001800FFF71DFE1B2300211800FFF718FE23
:1041F0001C2300211800FFF713FE1D2300211800C7
:10420000FFF70EFE1E2300211800FFF709FEC0462F
:10421000BD4680BD80B584B000AF78600023FB60F0
:1042200011E019227B68DBB219001000FFF7F8FDDE
:104230004B20FCF73DF8192300211800FFF7F0FD93
:10424000FB680133FB60FB68042BEADD9620FCF77A
:104250002FF8C046BD4604B080BD80B584B000AF25
:1042600078603960FFF772FF0023FB60BDE17B6877
:10427000BB60162300211800FFF7D2FD1723002191
:104280001800FFF7CDFD1822BB68DBB21900100043
:10429000FFF7C6FD192300211800FFF7C1FD1A23FF
:1042A00000211800FFF7BCFD1B2300211800FFF7B9
:1042B000B7FD1C2300211800FFF7B2FD1D230021CC
:1042C0001800FFF7ADFD1E2300211800FFF7A8FD21
:1042D0003B681800FFF7E2FD162300211800FFF7E6
:1042E0009FFD1722BB68DBB219001000FFF798FD95
:1042F0001822BB68DBB219001000FFF791FD1923EB
:1043000000211800FFF78CFD1A22BB68DBB21900F0
:104310001000FFF785FD1B2300211800FFF780FD2B
:104320001C2300211800FFF77BFD1D23002118002E
:10433000FFF776FD1E2300211800FFF771FD3B6893
:104340001800FFF7ABFD1622BB68DBB219001000A6
:10435000FFF766FD1722BB68DBB219001000FFF7FC
:104360005FFD1822BB68DBB219001000FFF758FD93
:10437000192300211800FFF753FD1A22BB68DBB296
:1043800019001000FFF74CFD1B22BB68DBB21900BF
:104390001000FFF745FD1C2300211800FFF740FD2A
:1043A0001D2300211800FFF73BFD1E2300211800EC
:1043B000FFF736FD3B681800FFF770FD1622BB685B
:1043C000DBB219001000FFF72BFD1722BB68DBB230
:1043D00019001000FFF724FD1822BB68DBB219009A
:1043E0001000FFF71DFD192300211800FFF718FD2D
:1043F0001A22BB68DBB219001000FFF711FD1B2267
:10440000BB68DBB219001000FFF70AFD1C23002176
:104410001800FFF705FD1D2300211800FFF700FD20
:104420001E22BB68DBB219001000FFF7F9FC3B68E5
:1044300064331800FFF732FD1622BB68DBB21900A7
:104440001000FFF7EDFC1722BB68DBB2190010006B
:10445000FFF7E6FC1822BB68DBB219001000FFF77B
:10446000DFFC192300211800FFF7DAFC1A22BB68D1
:10447000DBB219001000FFF7D3FC1B22BB68DBB2D4
:1044800019001000FFF7CCFC1C2300211800FFF7D7
:10449000C7FC1D2300211800FFF7C2FC1E230021CA
:1044A0001800FFF7BDFC3B681800FFF7F7FC162368
:1044B00000211800FFF7B4FC1722BB68DBB219001B
:1044C0001000FFF7ADFC1822BB68DBB2190010002A
:1044D000FFF7A6FC192300211800FFF7A1FC1A2200
:1044E000BB68DBB219001000FFF79AFC1B23002108
:1044F0001800FFF795FC1C2300211800FFF790FC23
:104500001D2300211800FFF78BFC1E23002118003B
:10451000FFF786FC3B681800FFF7C0FC162300215C
:104520001800FFF77DFC172300211800FFF778FC27
:104530001822BB68DBB219001000FFF771FC1923C9
:1045400000211800FFF76CFC1A2300211800FFF768
:1045500067FC1B2300211800FFF762FC1C230021CD
:104560001800FFF75DFC1D2300211800FFF758FC21
:104570001E2300211800FFF753FC3B681800FFF7CB
:104580008DFC162300211800FFF74AFC1723002199
:104590001800FFF745FC182300211800FFF740FC26
:1045A000192300211800FFF73BFC1A2300211800F3
:1045B000FFF736FC1B2300211800FFF731FC1C23FA
:1045C00000211800FFF72CFC1D2300211800FFF725
:1045D00027FC1E2300211800FFF722FC3B6818006F
:1045E000FFF75CFCFB680133FB60FB68002B00DC21
:1045F0003DE6C046BD4604B080BD000080B582B037
:1046000000AF7860A023DB05002270211800FDF7C1
:1046100012F8FFF759FBFFF734FC044B1B6800222C
:104620005A62C046BD4602B080BDC046E8000020C8
:1046300080B582B000AF78603960FEE780B582B0A7
:1046400000AF194B5A6B184B01210A435A63164BA2
:104650009A6B154B802149050A439A6305235B42F7
:10466000002200211800FCF7FFFB02235B4200221E
:1046700000211800FCF7F8FB01235B420022002117
:104680001800FCF7F1FB3B0000221A603B000022FF
:104690005A603B001800FDF799FBFDF7F9FBC04697
:1046A000BD4602B080BDC0460010024080B588B053
:1046B00000AF78607B681B68134A93421FD1134B8D
:1046C0005A6B124B802189000A435A630C217B18D4
:1046D00002221A607B1803225A607B1800229A601B
:1046E0007A18A023DB0511001800FCF719FE002240
:1046F00001210C20FCF7B8FB0C20FCF7CAFBC046DC
:10470000BD4608B080BDC0460024014000100240F4
:1047100080B588B000AF78607B681B68114A93420F
:104720001CD10C217B18C0221A607B1812225A60FF
:104730007B1800229A607B180322DA607B18012222
:104740001A617B18084A19001000FCF7E9FD074BB5
:104750009A6B064B802189030A439A63C046BD4683
:1047600008B080BD0054004000040050001002401A
:1047700080B582B000AF78607B681A688023DB0563
:104780009A420ED10E4B9A6B0D4B01210A439A634C
:10479000002201210F20FCF767FB0F20FCF779FBBB
:1047A0000AE07B681B68074A934205D1044B5A6BA9
:1047B000034B04210A435A63C046BD4602B080BD84
:1047C000001002400008014080B500AFC046BD4661
:1047D00080BD80B500AFFEE780B500AFC046BD46E6
:1047E00080BD80B500AFC046BD4680BD80B500AF7E
:1047F000FBF748FDFCF784FBC046BD4680BD0000CA
:1048000080B500AF034B1800FCF70CF8C046BD465E
:1048100080BDC0462001002080B500AF034B1800CA
:10482000FEF78AFAC046BD4680BDC046E8000020BB
:1048300080B500AF174B1A68164B802149000A4318
:104840001A60144BDA68134B13490A40DA60114BB3
:104850001A68104B11490A401A600E4B9A680D4BAA
:1048600001218A439A600B4B1A680A4B0C490A4093
:104870001A60084BDA68074B0A490A40DA60054BB0
:1048800000221A61084B802212059A60C046BD467C
:1048900080BDC046001002400C40FF88F6FFF6FEC7
:1048A000FFFFFBFFFFFF02FF00ED00E00D48854624
:1048B000002103E00C4B5B58435004310B480C4B78
:1048C00042189A42F6D30B4A02E0002313600432E6
:1048D000094B9A42F9D3FFF7ABFF00F011F8FEF74E
:1048E00059FDFEE700200020D84900080000002004
:1048F0001800002018000020C0010020FEE7000082
:1049000070B500260C4D0D4C641BA410A64209D1B5
:10491000002600F019F80A4D0A4C641BA410A642A8
:1049200005D170BDB300EB5898470136EEE7B300F0
:10493000EB5898470136F2E7D0490008D049000803
:10494000D0490008D4490008F8B5C046F8BC08BCF6
:104950009E467047F8B5C046F8BC08BC9E467047F6
:104960000001020708090A0B0C0D0E0F1617181983
:104970001A1B1C1D1E22232425262728292A2F30F6
:104980003132333C3D3E3F4243444647484A4B4C1C
:104990004D4F506F70717273747576802E2E2F5339
:1049A00072632F6D61696E2E6300000000000000CD
:1049B00000000000010203040607080900000000CF
:1049C00001020304030406080C1018203000000044
:0449D000E9000008F2
:0449D400C100000816
:1049D8000000080801000000B80B00008813000060
:0849E8004C1D000080841E003C
:04000005080048ADFA
:00000001FF
